{
  "abi": [
    {
      "type": "function",
      "name": "cancelDispute",
      "inputs": [
        {
          "name": "_disputeId",
          "type": "uint256",
          "internalType": "uint256"
        },
        {
          "name": "_data",
          "type": "bytes",
          "internalType": "bytes"
        }
      ],
      "outputs": [],
      "stateMutability": "nonpayable"
    },
    {
      "type": "function",
      "name": "disputeId",
      "inputs": [],
      "outputs": [
        {
          "name": "",
          "type": "uint256",
          "internalType": "uint256"
        }
      ],
      "stateMutability": "view"
    },
    {
      "type": "function",
      "name": "disputes",
      "inputs": [
        {
          "name": "disputeId",
          "type": "uint256",
          "internalType": "uint256"
        }
      ],
      "outputs": [
        {
          "name": "ipId",
          "type": "address",
          "internalType": "address"
        },
        {
          "name": "disputeInitiator",
          "type": "address",
          "internalType": "address"
        },
        {
          "name": "arbitrationPolicy",
          "type": "address",
          "internalType": "address"
        },
        {
          "name": "linkToDisputeSummary",
          "type": "bytes32",
          "internalType": "bytes32"
        },
        {
          "name": "tag",
          "type": "bytes32",
          "internalType": "bytes32"
        }
      ],
      "stateMutability": "view"
    },
    {
      "type": "function",
      "name": "isWhitelistedArbitrationPolicy",
      "inputs": [
        {
          "name": "arbitrationPolicy",
          "type": "address",
          "internalType": "address"
        }
      ],
      "outputs": [
        {
          "name": "allowed",
          "type": "bool",
          "internalType": "bool"
        }
      ],
      "stateMutability": "view"
    },
    {
      "type": "function",
      "name": "isWhitelistedArbitrationRelayer",
      "inputs": [
        {
          "name": "arbitrationPolicy",
          "type": "address",
          "internalType": "address"
        },
        {
          "name": "arbitrationRelayer",
          "type": "address",
          "internalType": "address"
        }
      ],
      "outputs": [
        {
          "name": "allowed",
          "type": "bool",
          "internalType": "bool"
        }
      ],
      "stateMutability": "view"
    },
    {
      "type": "function",
      "name": "isWhitelistedDisputeTag",
      "inputs": [
        {
          "name": "tag",
          "type": "bytes32",
          "internalType": "bytes32"
        }
      ],
      "outputs": [
        {
          "name": "allowed",
          "type": "bool",
          "internalType": "bool"
        }
      ],
      "stateMutability": "view"
    },
    {
      "type": "function",
      "name": "raiseDispute",
      "inputs": [
        {
          "name": "_ipId",
          "type": "address",
          "internalType": "address"
        },
        {
          "name": "_arbitrationPolicy",
          "type": "address",
          "internalType": "address"
        },
        {
          "name": "_linkToDisputeSummary",
          "type": "string",
          "internalType": "string"
        },
        {
          "name": "_targetTag",
          "type": "bytes32",
          "internalType": "bytes32"
        },
        {
          "name": "_data",
          "type": "bytes",
          "internalType": "bytes"
        }
      ],
      "outputs": [
        {
          "name": "",
          "type": "uint256",
          "internalType": "uint256"
        }
      ],
      "stateMutability": "nonpayable"
    },
    {
      "type": "function",
      "name": "resolveDispute",
      "inputs": [
        {
          "name": "_disputeId",
          "type": "uint256",
          "internalType": "uint256"
        }
      ],
      "outputs": [],
      "stateMutability": "nonpayable"
    },
    {
      "type": "function",
      "name": "setDisputeJudgement",
      "inputs": [
        {
          "name": "_disputeId",
          "type": "uint256",
          "internalType": "uint256"
        },
        {
          "name": "_decision",
          "type": "bool",
          "internalType": "bool"
        },
        {
          "name": "_data",
          "type": "bytes",
          "internalType": "bytes"
        }
      ],
      "outputs": [],
      "stateMutability": "nonpayable"
    },
    {
      "type": "function",
      "name": "whitelistArbitrationPolicy",
      "inputs": [
        {
          "name": "_arbitrationPolicy",
          "type": "address",
          "internalType": "address"
        },
        {
          "name": "_allowed",
          "type": "bool",
          "internalType": "bool"
        }
      ],
      "outputs": [],
      "stateMutability": "nonpayable"
    },
    {
      "type": "function",
      "name": "whitelistArbitrationRelayer",
      "inputs": [
        {
          "name": "_arbitrationPolicy",
          "type": "address",
          "internalType": "address"
        },
        {
          "name": "_arbPolicyRelayer",
          "type": "address",
          "internalType": "address"
        },
        {
          "name": "_allowed",
          "type": "bool",
          "internalType": "bool"
        }
      ],
      "outputs": [],
      "stateMutability": "nonpayable"
    },
    {
      "type": "function",
      "name": "whitelistDisputeTags",
      "inputs": [
        {
          "name": "_tag",
          "type": "bytes32",
          "internalType": "bytes32"
        },
        {
          "name": "_allowed",
          "type": "bool",
          "internalType": "bool"
        }
      ],
      "outputs": [],
      "stateMutability": "nonpayable"
    },
    {
      "type": "error",
      "name": "DisputeModule__NotDisputeInitiator",
      "inputs": []
    },
    {
      "type": "error",
      "name": "DisputeModule__NotWhitelistedArbitrationPolicy",
      "inputs": []
    },
    {
      "type": "error",
      "name": "DisputeModule__NotWhitelistedArbitrationRelayer",
      "inputs": []
    },
    {
      "type": "error",
      "name": "DisputeModule__NotWhitelistedDisputeTag",
      "inputs": []
    },
    {
      "type": "error",
      "name": "DisputeModule__ZeroArbitrationPolicy",
      "inputs": []
    },
    {
      "type": "error",
      "name": "DisputeModule__ZeroArbitrationRelayer",
      "inputs": []
    },
    {
      "type": "error",
      "name": "DisputeModule__ZeroDisputeTag",
      "inputs": []
    },
    {
      "type": "error",
      "name": "DisputeModule__ZeroLinkToDisputeSummary",
      "inputs": []
    },
    {
      "type": "error",
      "name": "ReentrancyGuardReentrantCall",
      "inputs": []
    },
    {
      "type": "error",
      "name": "StringTooLong",
      "inputs": [
        {
          "name": "str",
          "type": "string",
          "internalType": "string"
        }
      ]
    }
  ],
  "bytecode": {
    "object": "0x608060405234801561001057600080fd5b506001600055610fe2806100256000396000f3fe608060405234801561001057600080fd5b50600436106100d45760003560e01c8063bdcae24e11610081578063cbf1ac7b1161005b578063cbf1ac7b14610256578063dab83d2914610269578063ee414b181461028c57600080fd5b8063bdcae24e1461021d578063c2b7b86814610230578063c844825d1461024357600080fd5b8063684b69e3116100b2578063684b69e3146101a957806369d31e0a146101dc578063b33b74571461020a57600080fd5b80632e77c8d2146100d95780634da0412d146100f5578063564a565d1461010a575b600080fd5b6100e260015481565b6040519081526020015b60405180910390f35b610108610103366004610a80565b61029f565b005b610163610118366004610ac3565b60026020819052600091825260409091208054600182015492820154600383015460049093015473ffffffffffffffffffffffffffffffffffffffff92831694831693919092169185565b6040805173ffffffffffffffffffffffffffffffffffffffff9687168152948616602086015292909416918301919091526060820152608081019190915260a0016100ec565b6101cc6101b7366004610adc565b60046020526000908152604090205460ff1681565b60405190151581526020016100ec565b6101cc6101ea366004610afe565b600560209081526000928352604080842090915290825290205460ff1681565b610108610218366004610b31565b61039e565b61010861022b366004610ba4565b610441565b61010861023e366004610ac3565b61055b565b610108610251366004610bfe565b6105be565b610108610264366004610c4a565b6106d3565b6101cc610277366004610ac3565b60036020526000908152604090205460ff1681565b6100e261029a366004610c9c565b610748565b73ffffffffffffffffffffffffffffffffffffffff83166102ec576040517fde9bb34100000000000000000000000000000000000000000000000000000000815260040160405180910390fd5b73ffffffffffffffffffffffffffffffffffffffff8216610339576040517f2be8a15d00000000000000000000000000000000000000000000000000000000815260040160405180910390fd5b73ffffffffffffffffffffffffffffffffffffffff92831660009081526005602090815260408083209490951682529290925291902080547fffffffffffffffffffffffffffffffffffffffffffffffffffffffffffffff0016911515919091179055565b73ffffffffffffffffffffffffffffffffffffffff82166103eb576040517fde9bb34100000000000000000000000000000000000000000000000000000000815260040160405180910390fd5b73ffffffffffffffffffffffffffffffffffffffff91909116600090815260046020526040902080547fffffffffffffffffffffffffffffffffffffffffffffffffffffffffffffff0016911515919091179055565b610449610993565b60008481526002602081815260408084209092015473ffffffffffffffffffffffffffffffffffffffff168084526005825282842033855290915291205460ff166104c0576040517fca97282700000000000000000000000000000000000000000000000000000000815260040160405180910390fd5b6040517f6152325c00000000000000000000000000000000000000000000000000000000815273ffffffffffffffffffffffffffffffffffffffff821690636152325c90610518908890889088908890600401610e0a565b600060405180830381600087803b15801561053257600080fd5b505af1158015610546573d6000803e3d6000fd5b50505050506105556001600055565b50505050565b60008181526002602052604090206001015473ffffffffffffffffffffffffffffffffffffffff1633146105bb576040517fb9e311aa00000000000000000000000000000000000000000000000000000000815260040160405180910390fd5b50565b6105c6610993565b60008381526002602052604090206001015473ffffffffffffffffffffffffffffffffffffffff163314610626576040517fb9e311aa00000000000000000000000000000000000000000000000000000000815260040160405180910390fd5b600083815260026020819052604091829020015490517ff52a523300000000000000000000000000000000000000000000000000000000815273ffffffffffffffffffffffffffffffffffffffff9091169063f52a523390610692903390879087908790600401610e2c565b600060405180830381600087803b1580156106ac57600080fd5b505af11580156106c0573d6000803e3d6000fd5b505050506106ce6001600055565b505050565b8161070a576040517ff0733b8300000000000000000000000000000000000000000000000000000000815260040160405180910390fd5b60009182526003602052604090912080547fffffffffffffffffffffffffffffffffffffffffffffffffffffffffffffff0016911515919091179055565b6000610752610993565b73ffffffffffffffffffffffffffffffffffffffff861660009081526004602052604090205460ff166107b1576040517f15d0d81b00000000000000000000000000000000000000000000000000000000815260040160405180910390fd5b60008481526003602052604090205460ff166107f9576040517f47d1d67600000000000000000000000000000000000000000000000000000000815260040160405180910390fd5b6000610804866109d6565b90508061083d576040517f653d1aea00000000000000000000000000000000000000000000000000000000815260040160405180910390fd5b6001805490600061084d83610e62565b90915550506040805160a08101825273ffffffffffffffffffffffffffffffffffffffff808b1682523360208084018281528c841685870181815260608701898152608088018e81526001805460009081526002978890528b902099518a54908a167fffffffffffffffffffffffff0000000000000000000000000000000000000000918216178b559551908a018054918a16918716919091179055915194880180549590971694909316939093179094555160038501555160049384015592517ff60be854000000000000000000000000000000000000000000000000000000008152909263f60be85492610947928991899101610ec1565b600060405180830381600087803b15801561096157600080fd5b505af1158015610975573d6000803e3d6000fd5b505050506001549150506109896001600055565b9695505050505050565b6002600054036109cf576040517f3ee5aeb500000000000000000000000000000000000000000000000000000000815260040160405180910390fd5b6002600055565b60006109e1826109e7565b92915050565b600080829050601f81511115610a3457826040517f305a27a9000000000000000000000000000000000000000000000000000000008152600401610a2b9190610efa565b60405180910390fd5b8051610a3f82610f67565b179392505050565b803573ffffffffffffffffffffffffffffffffffffffff81168114610a6b57600080fd5b919050565b80358015158114610a6b57600080fd5b600080600060608486031215610a9557600080fd5b610a9e84610a47565b9250610aac60208501610a47565b9150610aba60408501610a70565b90509250925092565b600060208284031215610ad557600080fd5b5035919050565b600060208284031215610aee57600080fd5b610af782610a47565b9392505050565b60008060408385031215610b1157600080fd5b610b1a83610a47565b9150610b2860208401610a47565b90509250929050565b60008060408385031215610b4457600080fd5b610b4d83610a47565b9150610b2860208401610a70565b60008083601f840112610b6d57600080fd5b50813567ffffffffffffffff811115610b8557600080fd5b602083019150836020828501011115610b9d57600080fd5b9250929050565b60008060008060608587031215610bba57600080fd5b84359350610bca60208601610a70565b9250604085013567ffffffffffffffff811115610be657600080fd5b610bf287828801610b5b565b95989497509550505050565b600080600060408486031215610c1357600080fd5b83359250602084013567ffffffffffffffff811115610c3157600080fd5b610c3d86828701610b5b565b9497909650939450505050565b60008060408385031215610c5d57600080fd5b82359150610b2860208401610a70565b7f4e487b7100000000000000000000000000000000000000000000000000000000600052604160045260246000fd5b60008060008060008060a08789031215610cb557600080fd5b610cbe87610a47565b9550610ccc60208801610a47565b9450604087013567ffffffffffffffff80821115610ce957600080fd5b818901915089601f830112610cfd57600080fd5b813581811115610d0f57610d0f610c6d565b604051601f82017fffffffffffffffffffffffffffffffffffffffffffffffffffffffffffffffe0908116603f01168101908382118183101715610d5557610d55610c6d565b816040528281528c6020848701011115610d6e57600080fd5b82602086016020830137600060208483010152809850505050606089013594506080890135915080821115610da257600080fd5b50610daf89828a01610b5b565b979a9699509497509295939492505050565b8183528181602085013750600060208284010152600060207fffffffffffffffffffffffffffffffffffffffffffffffffffffffffffffffe0601f840116840101905092915050565b8481528315156020820152606060408201526000610989606083018486610dc1565b73ffffffffffffffffffffffffffffffffffffffff85168152836020820152606060408201526000610989606083018486610dc1565b60007fffffffffffffffffffffffffffffffffffffffffffffffffffffffffffffffff8203610eba577f4e487b7100000000000000000000000000000000000000000000000000000000600052601160045260246000fd5b5060010190565b73ffffffffffffffffffffffffffffffffffffffff84168152604060208201526000610ef1604083018486610dc1565b95945050505050565b60006020808352835180602085015260005b81811015610f2857858101830151858201604001528201610f0c565b5060006040828601015260407fffffffffffffffffffffffffffffffffffffffffffffffffffffffffffffffe0601f8301168501019250505092915050565b80516020808301519190811015610fa6577fffffffffffffffffffffffffffffffffffffffffffffffffffffffffffffffff8160200360031b1b821691505b5091905056fea26469706673582212208d89987956dcf127e044db007362046efdf7b424d9fbef85a48a821c982d78fb64736f6c63430008170033",
    "linkReferences": {}
  },
  "methodIdentifiers": {
    "cancelDispute(uint256,bytes)": "c844825d",
    "disputeId()": "2e77c8d2",
    "disputes(uint256)": "564a565d",
    "isWhitelistedArbitrationPolicy(address)": "684b69e3",
    "isWhitelistedArbitrationRelayer(address,address)": "69d31e0a",
    "isWhitelistedDisputeTag(bytes32)": "dab83d29",
    "raiseDispute(address,address,string,bytes32,bytes)": "ee414b18",
    "resolveDispute(uint256)": "c2b7b868",
    "setDisputeJudgement(uint256,bool,bytes)": "bdcae24e",
    "whitelistArbitrationPolicy(address,bool)": "b33b7457",
    "whitelistArbitrationRelayer(address,address,bool)": "4da0412d",
    "whitelistDisputeTags(bytes32,bool)": "cbf1ac7b"
  },
  "id": 50
}